:100000000C9434000C9451000C9451000C94510049
:100010000C9451000C9451000C9451000C9451001C
:100020000C9451000C9451000C9451000C948F00CE
:100030000C9451000C9451000C9451000C945100FC
:100040000C9451000C9451000C9451000C945100EC
:100050000C9451000C9451000C9451000C945100DC
:100060000C9451000C94510011241FBECFEFD8E026
:10007000DEBFCDBF11E0A0E0B1E0EAE0F5E002C0F4
:1000800005900D92A231B107D9F721E0A2E1B1E0CC
:1000900001C01D92A132B207E1F70E94B6000C9494
:1000A00083020C940000CF93DF93CDB7DEB780E8D6
:1000B00090E0FC01108281E890E0FC01108281E870
:1000C00090E0FC01208181E890E02860FC01208321
:1000D00088E890E023ED30E3FC013183208381E860
:1000E00090E0FC01208181E890E02360FC01208306
:1000F0008FE690E0FC0120818FE690E02260FC0119
:10010000208384E290E0FC01208184E290E0216081
:10011000FC01208378940000DF91CF9108951F9215
:100120000F920FB60F9211242F933F938F939F93AB
:10013000EF93FF93CF93DF93CDB7DEB785E290E0E7
:10014000FC01308185E290E021E02327FC0120833F
:100150000000DF91CF91FF91EF919F918F913F919F
:100160002F910F900FBE0F901F901895CF93DF9394
:10017000CDB7DEB70E945300FFCFCF93DF93CDB74B
:10018000DEB781E0809312011092130110921401E6
:100190001092150110921601109217011092180179
:1001A0001092190110921A0110921B010000DF91A8
:1001B000CF910895CF93DF93CDB7DEB7809117012C
:1001C0008F5F8093170180911701873048F58091E8
:1001D000130190911401A0911501B0911601089797
:1001E000A105B10578F08091130190911401A091BF
:1001F0001501B09116010D97A105B10518F41092E3
:10020000120103C081E08093120110921301109239
:1002100014011092150110921601109217010CC0D2
:1002200081E090E0A0E0B0E0809318019093190184
:10023000A0931A01B0931B010000DF91CF910895A4
:10024000CF93DF93CDB7DEB780911201DF91CF91CD
:100250000895CF93DF93CDB7DEB7809113019091CE
:100260001401A0911501B09116010196A11DB11DB7
:100270008093130190931401A0931501B09316017C
:100280000000DF91CF910895CF93DF9300D01F92AC
:10029000CDB7DEB78B838B818036C0F58B8182959D
:1002A0008695877089838B818F718A838981882F56
:1002B00090E0880F991F80509F4FFC0180819181B1
:1002C000FC0120813181428153818A81682F70E055
:1002D00081E090E002C0880F991F6A95E2F7092E2D
:1002E000000CAA0BBB0B6981662F70E0660F771FAD
:1002F00060507F4FFB0160817181822B932BA42B77
:10030000B52BFB0180839183A283B38300000F9000
:100310000F900F90DF91CF910895CF93DF9300D08E
:100320001F92CDB7DEB78B838B818036C0F58B8172
:1003300082958695877089838B818F718A83898165
:10034000882F90E0880F991F8A5F9E4FFC01808163
:100350009181FC0120813181428153818A81682F02
:1003600070E081E090E002C0880F991F6A95E2F783
:10037000092E000CAA0BBB0B6981662F70E0660F7B
:10038000771F6A5F7E4FFB0160817181822B932B07
:10039000A42BB52BFB0180839183A283B383000040
:1003A0000F900F900F90DF91CF910895CF93DF932F
:1003B000CDB7DEB70E94270210921C0110921D01DA
:1003C00010921E0110921F01109220010000DF9177
:1003D000CF910895CF93DF93CDB7DEB780911D0104
:1003E00090911E01A0911F01B0912001843F914086
:1003F000A105B10599F480911C01809580931C01A1
:1004000080911C01682F81E00E94400210921D0122
:1004100010921E0110921F011092200180911D0167
:1004200090911E01A0911F01B09120010A96A11D7B
:10043000B11D80931D0190931E01A0931F01B093E5
:1004400020010E9429010000DF91CF910895CF93F0
:10045000DF9300D0CDB7DEB783E290E09A83898343
:1004600089819A81FC018181282F226089819A816A
:10047000FC01218300000F900F90DF91CF91089530
:10048000CF93DF9300D000D0CDB7DEB78B836C83E2
:1004900083E290E09A8389838C818823B1F08981FB
:1004A0009A81FC018281482F8B81282F30E081E0E6
:1004B00090E002C0880F991F2A95E2F7842B282F1D
:1004C00089819A81FC01228316C089819A81FC016D
:1004D0008281482F8B81282F30E081E090E002C09C
:1004E000880F991F2A95E2F780958423282F898108
:1004F0009A81FC01228300000F900F900F900F90C3
:0A050000DF91CF910895F894FFCF2A
:10050A0000E104E108E180E284E288E223002600B7
:02051A002900B6
:00000001FF
