:100000000C9434000C9451000C9451000C94510049
:100010000C9451000C9451000C9451000C9451001C
:100020000C9451000C9451000C9451000C94F1006C
:100030000C9451000C9451000C9451000C945100FC
:100040000C9451000C9451000C9451000C945100EC
:100050000C9451000C9451000C9451000C945100DC
:100060000C9451000C94510011241FBECFEFD8E026
:10007000DEBFCDBF11E0A0E0B1E0EAE8F8E002C0E9
:1000800005900D92A231B107D9F721E0A2E1B1E0CC
:1000900001C01D92A332B207E1F70E9453000C94F5
:1000A00043040C940000CF93DF93CDB7DEB7609785
:1000B0000FB6F894DEBF0FBECDBF0E94CC020E94E7
:1000C0001B010E947B020E94620181E090E09A8302
:1000D00089830E948F020E947F0180E090E0A0E26D
:1000E000B1E48B839C83AD83BE8320E030E04AE79C
:1000F00053E46B817C818D819E810E94AE03DC0183
:10010000CB018F839887A987BA8720E030E040E849
:100110005FE36F81788589859A850E94280388230B
:100120002CF481E090E09C878B873FC020E03FEF7C
:100130004FE757E46F81788589859A850E94A903E6
:1001400018164CF520E030E040E251E46B817C81F0
:100150008D819E810E94AE03DC01CB01BC01CD01EB
:100160000E942D03DC01CB019C878B870FC089E1A6
:1001700090E09E878D878D859E850197F1F79E87FC
:100180008D878B859C8501979C878B878B859C852C
:10019000892B69F714C06F81788589859A850E94BB
:1001A0002D03DC01CB019C878B878B859C85988BED
:1001B0008F878F8598890197F1F7988B8F870E9499
:1001C0008F0289819A81029731F40E947F0181E038
:1001D00090E09A83898389819A8101969A838983A1
:1001E0007CCF1F920F920FB60F9211242F938F93F3
:1001F0009F93EF93FF93CF93DF93CDB7DEB781E06B
:1002000090E0909313018093120185E290E0FC014D
:10021000208185E290E02160FC0120830000DF91D5
:10022000CF91FF91EF919F918F912F910F900FBEE2
:100230000F901F901895CF93DF93CDB7DEB7F8944A
:1002400081E890E0FC01208181E890E02860FC01D9
:10025000208388E890E023ED30E3FC0131832083A4
:1002600081E890E0FC01208181E890E02360FC01BE
:1002700020838FE690E0FC0120818FE690E02260F1
:10028000FC01208384E290E0FC01208184E290E084
:100290002160FC01208385E290E0FC01208185E261
:1002A00090E02E7FFC01208378940000DF91CF91B5
:1002B0000895CF93DF93CDB7DEB70E94C501DF91DC
:1002C000CF910895CF93DF93CDB7DEB781E08093D0
:1002D000140110921501109216011092170110923C
:1002E00018011092190110921A0110921B0110921C
:1002F0001C0110921D010000DF91CF910895CF9352
:10030000DF93CDB7DEB7809119018F5F809319011C
:1003100080911901873048F580911501909116015F
:10032000A0911701B09118010897A105B10578F0C7
:100330008091150190911601A0911701B0911801BB
:100340000D97A105B10518F41092140103C081E0C6
:10035000809314011092150110921601109217014A
:1003600010921801109219010CC081E090E0A0E0F9
:10037000B0E080931A0190931B01A0931C01B093ED
:100380001D010000DF91CF910895CF93DF93CDB78A
:10039000DEB780911401DF91CF910895CF93DF9361
:1003A000CDB7DEB78091150190911601A09117018C
:1003B000B09118010196A11DB11D80931501909374
:1003C0001601A0931701B09318010000DF91CF919F
:1003D0000895CF93DF9300D01F92CDB7DEB78B8304
:1003E0008B818036C0F58B81829586958770898355
:1003F0008B818F718A838981882F90E0880F991F64
:1004000080509F4FFC0180819181FC0120813181CE
:10041000428153818A81682F70E081E090E002C0C0
:10042000880F991F6A95E2F7092E000CAA0BBB0BE7
:100430006981662F70E0660F771F60507F4FFB0168
:1004400060817181822B932BA42BB52BFB018083C0
:100450009183A283B38300000F900F900F90DF91E0
:10046000CF910895CF93DF9300D01F92CDB7DEB721
:100470008B838B818036C0F58B81829586958770C2
:1004800089838B818F718A838981882F90E0880F7F
:10049000991F8A5F9E4FFC0180819181FC01208120
:1004A0003181428153818A81682F70E081E090E040
:1004B00002C0880F991F6A95E2F7092E000CAA0B5B
:1004C000BB0B6981662F70E0660F771F6A5F7E4FF6
:1004D000FB0160817181822B932BA42BB52BFB0137
:1004E00080839183A283B38300000F900F900F90BD
:1004F000DF91CF910895CF93DF93CDB7DEB70E9400
:10050000CC0210921E0110921F0110922001109235
:100510002101109222010000DF91CF910895CF9325
:10052000DF93CDB7DEB780911F0190912001A0919C
:100530002101B0912201843F9140A105B10599F4B8
:1005400080911E01809580931E0180911E01682F6D
:1005500081E00E94E50210921F011092200110928A
:1005600021011092220180911F0190912001A09100
:100570002101B09122010A96A11DB11D80931F0196
:1005800090932001A0932101B09322010E94CE01FB
:100590000000DF91CF910895CF93DF9300D0CDB7C6
:1005A000DEB783E290E09A83898389819A81FC0196
:1005B0008181282F226089819A81FC01218300009A
:1005C0000F900F90DF91CF910895CF93DF9300D0DC
:1005D00000D0CDB7DEB78B836C8383E290E09A8343
:1005E00089838C818823B1F089819A81FC01828181
:1005F000482F8B81282F30E081E090E002C0880FE7
:10060000991F2A95E2F7842B282F89819A81FC0172
:10061000228316C089819A81FC018281482F8B81B7
:10062000282F30E081E090E002C0880F991F2A95C2
:10063000E2F780958423282F89819A81FC01228307
:1006400000000F900F900F900F90DF91CF910895C1
:100650000E945C0308F481E008950E94880388F0FA
:100660009F5798F0B92F9927B751B0F0E1F0660F76
:10067000771F881F991F1AF0BA95C9F714C0B130B7
:1006800091F00E94A203B1E008950C94A203672F99
:10069000782F8827B85F39F0B93FCCF386957795E6
:1006A0006795B395D9F73EF49095809570956195CF
:1006B0007F4F8F4F9F4F0895990F0008550FAA0B3A
:1006C000E0E8FEEF16161706E807F907C0F0121665
:1006D0001306E407F50798F0621B730B840B950B68
:1006E00039F40A2661F0232B242B252B21F40895BD
:1006F0000A2609F4A140A6958FEF811D811D08955A
:1007000057FD9058440F551F59F05F3F71F04795C2
:10071000880F97FB991F61F09F3F79F087950895A7
:10072000121613061406551FF2CF4695F1DF08C0C6
:10073000161617061806991FF1CF869571056105E3
:1007400008940895E894BB2766277727CB0197F98B
:1007500008950E945C0308F48FEF08950E94C1037E
:100760000C9432040E94240438F00E942B0420F0E0
:10077000952311F00C941B040C94210411240C9467
:10078000A3030E94800370F3959FC1F3950F50E07F
:10079000551F629FF001729FBB27F00DB11D639F33
:1007A000AA27F00DB11DAA1F649F6627B00DA11DD9
:1007B000661F829F2227B00DA11D621F739FB00D7F
:1007C000A11D621F839FA00D611D221F749F3327EF
:1007D000A00D611D231F849F600D211D822F762F88
:1007E0006A2F11249F5750409AF0F1F088234AF065
:1007F000EE0FFF1FBB1F661F771F881F91505040D1
:10080000A9F79E3F510580F00C941B040C94A303A0
:100810005F3FE4F3983ED4F3869577956795B79557
:10082000F795E7959F5FC1F7FE2B880F911D969571
:10083000879597F9089597F99F6780E870E060E0E1
:1008400008959FEF80EC089500240A941616170669
:1008500018060906089500240A94121613061406B1
:1008600005060895092E0394000C11F4882352F014
:10087000BB0F40F4BF2B11F460FF04C06F5F7F4FCC
:0A0880008F4F9F4F0895F894FFCFAB
:10088A0000E104E108E180E284E288E22300260034
:02089A00290033
:00000001FF
