:100000000C9434000C9451000C9451000C94510049
:100010000C9451000C9451000C946C000C94510001
:100020000C9451000C9451000C9451000C9451000C
:100030000C9451000C9451000C9451000C945100FC
:100040000C9451000C9451000C9451000C945100EC
:100050000C9451000C9451000C9451000C945100DC
:100060000C9451000C94510011241FBECFEFD8E026
:10007000DEBFCDBF11E0A0E0B1E0EAE7F9E002C0E9
:1000800005900D92A431B107D9F721E0A4E1B1E0C8
:1000900001C01D92A832B207E1F70E9453000C94F0
:1000A000BB040C940000CF93DF93CDB7DEB787E39A
:1000B00090E0FC01208187E390E02160FC01208337
:1000C00088E390E0FC01208188E390E02E7FFC0132
:1000D00020830E949600FFCF1F920F920FB60F92BF
:1000E00011242F938F939F93EF93FF93CF93DF93DD
:1000F000CDB7DEB781E090E09093150180931401B5
:1001000085E290E0FC01208185E290E02160FC0125
:1001100020830000DF91CF91FF91EF919F918F910C
:100120002F910F900FBE0F901F901895CF93DF93D4
:10013000CDB7DEB784E290E0FC01208184E290E05C
:100140002160FC01208385E290E0FC01208185E2B2
:1001500090E02E7FFC012083F89487E090E0887087
:100160009927892B11F088E201C088E097E0977009
:10017000892B982F88E10FB6F894A895809360009A
:100180000FBE9093600080E690E028E1FC012083A0
:1001900080E690E02AE4FC01208378940000DF915F
:1001A000CF910895CF93DF93CDB7DEB781E08093F1
:1001B0001601109217011092180110921901109255
:1001C0001A0110921B0110921C0110921D01109235
:1001D0001E010000DF91CF910895EF92FF920F93DF
:1001E0001F93CF93DF93CDB7DEB720911F013091DE
:1001F0002001409121015091220180911B01909199
:100200001C01A0911D01B0911E0179018A01E81A1B
:10021000F90A0A0B1B0BD801C70185369105A10508
:10022000B105B0F58091170190911801A0911901C5
:10023000B0911A010897A105B10578F080911701D6
:1002400090911801A0911901B0911A010D97A10583
:10025000B10518F41092160103C081E080931601D5
:1002600010921701109218011092190110921A01A0
:1002700080911F0190912001A0912101B091220154
:1002800080931B0190931C01A0931D01B0931E014C
:1002900080911F0190912001A0912101B091220134
:1002A0008093240190932501A0932601B093270108
:1002B0000000DF91CF911F910F91FF90EF90089573
:1002C000CF93DF93CDB7DEB780911601DF91CF9149
:1002D0000895CF93DF93CDB7DEB78091170190914A
:1002E0001801A0911901B0911A010196A11DB11D2B
:1002F0008093170190931801A0931901B0931A01EC
:100300000000DF91CF910895CF93DF93CDB7DEB793
:1003100080E098E3FC0180819181A281B38120E09B
:1003200038E38160F90180839183A283B383000065
:10033000DF91CF910895CF93DF9300D01F92CDB777
:10034000DEB78B838B8182958695877089838B81BD
:100350008F718A838981882F90E08130910579F1AE
:10036000823091051CF4892B49F08CC082309105B4
:1003700009F446C0039709F464C084C080E398E39D
:10038000FC0120813181428153818A81682F70E094
:1003900081E090E002C0880F991F6A95E2F7092E6C
:1003A000000CAA0BBB0B60E378E3822B932BA42BEE
:1003B000B52BFB0180839183A283B38363C084E365
:1003C00098E3FC0120813181428153818A81682F29
:1003D00070E081E090E002C0880F991F6A95E2F713
:1003E000092E000CAA0BBB0B64E378E3822B932B42
:1003F000A42BB52BFB0180839183A283B38342C0DE
:1004000080E498E3FC0120813181428153818A811B
:10041000682F70E081E090E002C0880F991F6A9514
:10042000E2F7092E000CAA0BBB0B60E478E3822BE9
:10043000932BA42BB52BFB0180839183A283B383E1
:1004400021C084E498E3FC01208131814281538101
:100450008A81682F70E081E090E002C0880F991FC8
:100460006A95E2F7092E000CAA0BBB0B64E478E353
:10047000822B932BA42BB52BFB0180839183A2832A
:10048000B383000000000F900F900F90DF91CF9189
:100490000895CF93DF9300D01F92CDB7DEB78B8343
:1004A0008B8182958695877089838B818F718A83F2
:1004B0008981882F90E08130910579F18230910512
:1004C0001CF4892B49F08CC08230910509F446C098
:1004D000039709F464C084C080E198E3FC012081A3
:1004E0003181428153818A81682F70E081E090E000
:1004F00002C0880F991F6A95E2F7092E000CAA0B1B
:10050000BB0B60E178E3822B932BA42BB52BFB0173
:1005100080839183A283B38363C084E198E3FC0169
:1005200020813181428153818A81682F70E081E08E
:1005300090E002C0880F991F6A95E2F7092E000C1F
:10054000AA0BBB0B64E178E3822B932BA42BB52B76
:10055000FB0180839183A283B38342C080E298E34E
:10056000FC0120813181428153818A81682F70E0B2
:1005700081E090E002C0880F991F6A95E2F7092E8A
:10058000000CAA0BBB0B60E278E3822B932BA42B0D
:10059000B52BFB0180839183A283B38321C084E2C6
:1005A00098E3FC0120813181428153818A81682F47
:1005B00070E081E090E002C0880F991F6A95E2F731
:1005C000092E000CAA0BBB0B64E278E3822B932B61
:1005D000A42BB52BFB0180839183A283B3830000FE
:1005E00000000F900F900F90DF91CF910895CF935F
:1005F000DF9300D01F92CDB7DEB78B838B8180361F
:10060000C0F58B8182958695877089838B818F71E8
:100610008A838981882F90E0880F991F80509F4F8F
:10062000FC0180819181FC012081318142815381D3
:100630008A81682F70E081E090E002C0880F991FE6
:100640006A95E2F7092E000CAA0BBB0B6981662F95
:1006500070E0660F771F60507F4FFB0160817181F2
:10066000822B932BA42BB52BFB0180839183A28338
:10067000B38300000F900F900F90DF91CF910895FA
:10068000CF93DF9300D01F92CDB7DEB78B838B81E2
:100690008036C0F58B8182958695877089838B81A2
:1006A0008F718A838981882F90E0880F991F8A5FD4
:1006B0009E4FFC0180819181FC012081318142812A
:1006C00053818A81682F70E081E090E002C0880F3A
:1006D000991F6A95E2F7092E000CAA0BBB0B6981E2
:1006E000662F70E0660F771F6A5F7E4FFB016081A7
:1006F0007181822B932BA42BB52BFB0180839183DB
:10070000A283B38300000F900F900F90DF91CF91E1
:100710000895CF93DF93CDB7DEB728970FB6F8943F
:10072000DEBF0FBECDBF6D837E838F8398872D8103
:100730003E814F81588588EE93E0DC010E94A10440
:10074000DC01CB018D839E83AF83B88719821A8227
:100750001B821C820BC089819A81AB81BC8101966E
:10076000A11DB11D89839A83AB83BC8389819A8142
:10077000AB81BC812D813E814F81588582179307C3
:10078000A407B50740F3000028960FB6F894DEBF23
:100790000FBECDBFDF91CF910895CF93DF93CDB73B
:1007A000DEB70E94F403109223010000DF91CF9185
:1007B0000895CF93DF93CDB7DEB764EF71E080E0AB
:1007C00090E00E948903809123018095809323010A
:1007D00080912301682F83E00E9444040E946901F4
:1007E0000000DF91CF910895CF93DF9300D0CDB774
:1007F000DEB78091100190911101A0911201B0918A
:1008000013019A83898389819A81FC018081918176
:10081000A281B3818F7329813A81F9018083918309
:10082000A283B38389819A81FC0180819181A28115
:10083000B381806429813A81F90180839183A28305
:10084000B38389819A81FC0184819581A681B781D6
:10085000877F29813A81F90184839583A683B783B1
:1008600089819A81FC0184819581A681B781298142
:100870003A81F90184839583A683B78300000F90A2
:100880000F90DF91CF910895CF93DF9300D000D0E8
:10089000CDB7DEB78B836C838091100190911101ED
:1008A000A0911201B09113019A83898389819A8161
:1008B000FC0124893589468957898B81682F70E02E
:1008C00081E090E002C0880F991F6A95E2F7809559
:1008D0009095092E000CAA0BBB0B82239323A42313
:1008E000B52329813A81F901848B958BA68BB78B2F
:1008F00089819A81FC0124893589468957898C81AF
:10090000882F90E06B81662F70E002C0880F991FDE
:100910006A95E2F7092E000CAA0BBB0B822B932BD6
:10092000A42BB52B29813A81F901848B958BA68B59
:10093000B78B00000F900F900F900F90DF91CF9129
:1009400008950E94AC04A59F900DB49F900DA49FA4
:10095000800D911D11240895A29FB001B39FC00185
:10096000A39F700D811D1124911DB29F700D811DDB
:0A0970001124911D0895F894FFCFA3
:10097A0000E104E108E180E284E288E2000002404A
:04098A000004024023
:00000001FF
