:100000000C9434000C9451000C9451000C94510049
:100010000C9451000C9451000C9451000C9451001C
:100020000C9451000C9451000C9451000C94370125
:100030000C9451000C9451000C945F000C945100EE
:100040000C9451000C9451000C9451000C945100EC
:100050000C9451000C9451000C9451000C945100DC
:100060000C9451000C94510011241FBECFEFD8E026
:10007000DEBFCDBF11E0A0E0B1E0ECECF4E002C0E7
:1000800005900D92A231B107D9F721E0A2E1B1E0CC
:1000900001C01D92A533B207E1F70E9496000C94AF
:1000A00064020C94000082E084BD9FE097BD8093C1
:1000B0006E0083E085BD8FB780688FBF08951F9263
:1000C0000F920FB60F9211248F939F93AF93BF930C
:1000D0008091170190911801A0911901B0911A0116
:1000E0000196A11DB11D8093170190931801A09353
:1000F0001901B0931A01BF91AF919F918F910F9009
:100100000FBE0F901F901895209A229A239A249A36
:10011000259A269A279A28980E9450020E94120235
:100120000E945F010E94EE000C9453000E94840024
:10013000289AC12CD12C7601C394809117019091FB
:100140001801A0911901B0911A0140911301509129
:1001500014016091150170911601841B950BA60B7B
:10016000B70B0A97A105B10540F380911701909153
:100170001801A0911901B0911A0180931301909375
:100180001401A0931501B09316010E9423028091DF
:1001900012018F5F80931201823078F280911F01EB
:1001A00090912001A0912101B09122010196A11D01
:1001B000B11D80931F0190932001A0932101B09362
:1001C000220110921201C0922D01D0922E01E092D4
:1001D0002F01F09230010E946E01AFCF8FB78F7761
:1001E0008FBFA89584B7877F84BFE0E6F0E0808169
:1001F000886180838AE08083109280008BE0809306
:1002000081008FE293E0909389008093880082E0E0
:1002100080936F008FB780688FBF08950E94AB01F5
:10022000811124C081E090E020912D0130912E01B8
:10023000232B11F090E080E0892BC1F0A89585B1C7
:1002400090E1892785B98091230190912401A091A3
:100250002501B09126010196A11DB11D80932301B6
:1002600090932401A0932501B093260108951F9235
:100270000F920FB60F9211242F933F934F935F93DA
:100280006F937F938F939F93AF93BF93EF93FF935E
:100290000E940E0185B190E2892785B9FF91EF9107
:1002A000BF91AF919F918F917F916F915F914F918E
:1002B0003F912F910F900FBE0F901F9018951092A5
:1002C0002B011092270110922801109229011092FF
:1002D0002A0110922E0110922D01089585B198E007
:1002E000892785B980911F0190912001059754F1CC
:1002F00085B190E4892785B98091270190912801E3
:10030000A0912901B0912A010897A105B105F8F043
:100310008091270190912801A0912901B0912A0193
:100320000D97A105B10598F410922B0110922701A9
:10033000109228011092290110922A011092200196
:1003400010921F0110922E0110922D01089581E04C
:1003500080932B01EBCF80912B0108958091270191
:1003600090912801A0912901B0912A010196A11D27
:10037000B11D8093270190932801A0932901B09388
:100380002A010895803628F5E82FE295E695E77072
:10039000F0E0EE0FFF1FEA5FFE4F0190F081E02DCD
:1003A0004081518162817381982F9F7121E030E0FB
:1003B00002C0220F331F9A95E2F7C901330FAA0B2F
:1003C000BB0B842B952BA62BB72B80839183A28309
:1003D000B3830895803628F5E82FE295E695E77017
:1003E000F0E0EE0FFF1FE050FF4F0190F081E02D95
:1003F0004081518162817381982F9F7121E030E0AB
:1004000002C0220F331F9A95E2F7C901330FAA0BDE
:10041000BB0B842B952BA62BB72B80839183A283B8
:10042000B38308950E94500210922C0160E081E095
:100430000E94520210923101109232011092330147
:1004400010923401089585B194E0892785B980918F
:10045000310190913201A0913301B09134010A969B
:10046000A11DB11D8093310190933201A0933301FE
:10047000B0933401843F9140A105B10580F06091B3
:100480002C01609560932C0181E00E945202109231
:10049000310110923201109233011092340108950B
:1004A000219A089545B121E030E0F90102C0EE0F34
:1004B000FF1F8A95E2F7CF01662319F0842B85B9D7
:0C04C000089580958423FBCFF894FFCFB3
:1004CC0080E284E288E200E104E108E123002600F6
:0204DC002900F5
:00000001FF
