:100000000C9434000C9451000C9451000C94510049
:100010000C9451000C9451000C9451000C9451001C
:100020000C9451000C9451000C9451000C94BA00A3
:100030000C9451000C9451000C9451000C945100FC
:100040000C9451000C9451000C9451000C945100EC
:100050000C9451000C9451000C9451000C945100DC
:100060000C9451000C94510011241FBECFEFD8E026
:10007000DEBFCDBF11E0A0E0B1E0E2EFF3E002C0EF
:1000800005900D92A231B107D9F721E0A2E1B1E0CC
:1000900001C01D92AC32B207E1F70E9460000C94DF
:1000A000F7010C940000B89ABA9ABB9AC0980E94C3
:1000B000E3010E94A0010E94F1000E946B000895DC
:1000C0000E9453000E94AD0183EC99E00197F1F783
:1000D00000C00000F7CFE1E8F0E080818860808315
:1000E0008BE093E090938900809388008081836007
:1000F0008083EFE6F0E0808182608083F894A895A9
:1001000084B7877F84BFE0E6F0E088E1808389E000
:1001100080837894089580911A0180FF1BC080919C
:10012000120190911301029774F010922501109220
:100130002401A89585B191E0892785B91092130112
:1001400010921201089581E090E090932501809330
:10015000240108950E94390181110BC0809124016E
:1001600090912501892B29F4A89585B191E08927E3
:1001700085B908951F920F920FB60F9211242F93F5
:100180003F934F935F936F937F938F939F93AF931F
:10019000BF93EF93FF9380911A0190911B01A0915F
:1001A0001C01B0911D010196A11DB11D80931A0182
:1001B00090931B01A0931C01B0931D010E948B0022
:1001C000FF91EF91BF91AF919F918F917F916F912F
:1001D0005F914F913F912F910F900FBE0F901F9005
:1001E000189581E08093220110921E0110921F0148
:1001F00010922001109221011092240110922501E9
:100200001092260110922701089580911601909175
:1002100017010697FCF480911E0190911F01A09197
:100220002001B09121010897A105B10578F08091D6
:100230001E0190911F01A0912001B09121010D9705
:10024000A105B10518F410922201089581E0809370
:100250002201089510921E0110921F011092200198
:100260001092210181E090E0909317018093160194
:10027000089580912201089580911E0190911F019F
:10028000A0912001B09121010196A11DB11D809383
:100290001E0190931F01A0932001B09321010895A6
:1002A000803628F5E82FE295E695E770F0E0EE0F4E
:1002B000FF1FEA5FFE4F0190F081E02D40815181E8
:1002C00062817381982F9F7121E030E002C0220F7C
:1002D000331F9A95E2F7C901330FAA0BBB0B842B8E
:1002E000952BA62BB72B80839183A283B38308958C
:1002F000803628F5E82FE295E695E770F0E0EE0FFE
:10030000FF1FE050FF4F0190F081E02D40815181AF
:1003100062817381982F9F7121E030E002C0220F2B
:10032000331F9A95E2F7C901330FAA0BBB0B842B3D
:10033000952BA62BB72B80839183A283B38308953B
:100340000E94E301109223011092280110922901CA
:1003500010922A0110922B01089585B194E089270B
:1003600085B98091280190912901A0912A01B0912D
:100370002B01843F9140A105B10581F460912301D7
:1003800060956093230181E00E94E50110922801AD
:100390001092290110922A0110922B0180912801BC
:1003A00090912901A0912A01B0912B010A96A11DDB
:1003B000B11D8093280190932901A0932A01B09345
:1003C0002B010C943C01219A089545B121E030E0C5
:1003D000F90102C0EE0FFF1F8A95E2F7CF016623F5
:1003E00019F0842B85B9089580958423FBCFF89468
:0203F000FFCF3D
:1003F20080E284E288E200E104E108E123002600D1
:020402002900CF
:00000001FF
