:100000000C9434000C9451000C9451000C94510049
:100010000C9451000C9451000C94E8000C94510085
:100020000C9451000C9451000C9451000C9451000C
:100030000C9451000C9451000C9451000C945100FC
:100040000C9451000C9451000C9451000C945100EC
:100050000C9451000C9451000C9451000C945100DC
:100060000C9451000C94510011241FBECFEFD8E026
:10007000DEBFCDBF11E0A0E0B1E0E4E7F8E002C0F0
:1000800005900D92A231B107D9F721E0A2E1B1E0CC
:1000900001C01D92A432B207E1F70E9453000C94F4
:1000A00038040C940000CF93DF93CDB7DEB72E97C2
:1000B0000FB6F894DEBF0FBECDBF0E94C1020E94F2
:1000C00070020E9457010E9474010E94840280E025
:1000D00090E0A0E2B1E489839A83AB83BC8320E003
:1000E00030E04AE753E469817A818B819C810E94E8
:1000F000A303DC01CB018D839E83AF83B88720E00F
:1001000030E040E85FE36D817E818F8198850E94B9
:100110001D0388232CF481E090E09A8789873FC0F3
:1001200020E03FEF4FE757E46D817E818F81988516
:100130000E949E0318164CF520E030E040E251E4A6
:1001400069817A818B819C810E94A303DC01CB01B0
:10015000BC01CD010E942203DC01CB019A87898773
:100160000FC089E190E09C878B878B859C850197E8
:10017000F1F79C878B8789859A8501979A8789876C
:1001800089859A85892B69F714C06D817E818F815D
:1001900098850E942203DC01CB019A878987898593
:1001A0009A859E878D878D859E850197F1F79E871D
:1001B0008D8780911201865F8093120180911201D8
:1001C000843108F482CF0E947401109212017DCF15
:1001D0001F920F920FB60F9211242F938F939F931C
:1001E000EF93FF93CF93DF93CDB7DEB781E090E03D
:1001F000909314018093130185E290E0FC0120812B
:1002000085E290E02160FC0120830000DF91CF9126
:10021000FF91EF919F918F912F910F900FBE0F90B3
:100220001F901895CF93DF93CDB7DEB784E290E0AF
:10023000FC01208184E290E02160FC01208385E2C2
:1002400090E0FC01208185E290E02E7FFC0120837C
:10025000F89482E090E088709927892B11F088E269
:1002600001C088E092E09770892B982F88E10FB643
:10027000F894A895809360000FBE9093600080E68C
:1002800090E028E1FC01208380E690E02AE4FC0174
:10029000208378940000DF91CF910895CF93DF936E
:1002A000CDB7DEB70E94BA01DF91CF910895CF9309
:1002B000DF93CDB7DEB781E0809315011092160170
:1002C00010921701109218011092190110921A0140
:1002D00010921B0110921C0110921D0110921E0120
:1002E0000000DF91CF910895CF93DF93CDB7DEB7B4
:1002F00080911A018F5F80931A0180911A018730D3
:1003000048F58091160190911701A0911801B091C4
:1003100019010897A105B10578F080911601909117
:100320001701A0911801B09119010D97A105B10510
:1003300018F41092150103C081E08093150110920A
:1003400016011092170110921801109219011092C3
:100350001A010CC081E090E0A0E0B0E080931B01A6
:1003600090931C01A0931D01B0931E010000DF912A
:10037000CF910895CF93DF93CDB7DEB7809115016C
:10038000DF91CF910895CF93DF93CDB7DEB7809102
:10039000160190911701A0911801B09119010196D1
:1003A000A11DB11D8093160190931701A093180110
:1003B000B09319010000DF91CF910895CF93DF939F
:1003C00000D01F92CDB7DEB78B838B818036C0F50E
:1003D0008B8182958695877089838B818F718A83C3
:1003E0008981882F90E0880F991F80509F4FFC01D2
:1003F00080819181FC0120813181428153818A81F8
:10040000682F70E081E090E002C0880F991F6A9524
:10041000E2F7092E000CAA0BBB0B6981662F70E076
:10042000660F771F60507F4FFB0160817181822BC7
:10043000932BA42BB52BFB0180839183A283B383E1
:1004400000000F900F900F90DF91CF910895CF9300
:10045000DF9300D01F92CDB7DEB78B838B818036C0
:10046000C0F58B8182958695877089838B818F718A
:100470008A838981882F90E0880F991F8A5F9E4F19
:10048000FC0180819181FC01208131814281538175
:100490008A81682F70E081E090E002C0880F991F88
:1004A0006A95E2F7092E000CAA0BBB0B6981662F37
:1004B00070E0660F771F6A5F7E4FFB01608171817C
:1004C000822B932BA42BB52BFB0180839183A283DA
:1004D000B38300000F900F900F90DF91CF9108959C
:1004E000CF93DF93CDB7DEB70E94C10210921F01F8
:1004F00010922001109221011092220110922301EA
:100500000000DF91CF910895CF93DF93CDB7DEB791
:100510008091200190912101A0912201B0912301AD
:10052000843F9140A105B10599F480911F01809508
:1005300080931F0180911F01682F81E00E94DA02E1
:100540001092200110922101109222011092230199
:100550008091200190912101A0912201B09123016D
:100560000A96A11DB11D8093200190932101A093B3
:100570002201B09323010E94C3010000DF91CF91BB
:100580000895CF93DF9300D0CDB7DEB783E290E03C
:100590009A83898389819A81FC018181282F226035
:1005A00089819A81FC01218300000F900F90DF91D7
:1005B000CF910895CF93DF9300D000D0CDB7DEB7B1
:1005C0008B836C8383E290E09A8389838C81882378
:1005D000B1F089819A81FC018281482F8B81282F7B
:1005E00030E081E090E002C0880F991F2A95E2F781
:1005F000842B282F89819A81FC01228316C089814E
:100600009A81FC018281482F8B81282F30E081E084
:1006100090E002C0880F991F2A95E2F78095842305
:10062000282F89819A81FC01228300000F900F906E
:100630000F900F90DF91CF9108950E94510308F41D
:1006400081E008950E947D0388F09F5798F0B92FAC
:100650009927B751B0F0E1F0660F771F881F991FF7
:100660001AF0BA95C9F714C0B13091F00E949703FF
:10067000B1E008950C949703672F782F8827B85F0F
:1006800039F0B93FCCF3869577956795B395D9F74F
:100690003EF490958095709561957F4F8F4F9F4F59
:1006A0000895990F0008550FAA0BE0E8FEEF161603
:1006B0001706E807F907C0F012161306E407F50756
:1006C00098F0621B730B840B950B39F40A2661F0CA
:1006D000232B242B252B21F408950A2609F4A1406D
:1006E000A6958FEF811D811D089557FD9058440FE9
:1006F000551F59F05F3F71F04795880F97FB991F81
:1007000061F09F3F79F0879508951216130614063D
:10071000551FF2CF4695F1DF08C0161617061806CA
:10072000991FF1CF86957105610508940895E894A5
:10073000BB2766277727CB0197F908950E945103BD
:1007400008F48FEF08950E94B6030C9427040E94CA
:10075000190438F00E94200420F0952311F00C9425
:1007600010040C94160411240C9498030E94750331
:1007700070F3959FC1F3950F50E0551F629FF001F4
:10078000729FBB27F00DB11D639FAA27F00DB11D0D
:10079000AA1F649F6627B00DA11D661F829F222796
:1007A000B00DA11D621F739FB00DA11D621F839F1D
:1007B000A00D611D221F749F3327A00D611D231FF3
:1007C000849F600D211D822F762F6A2F11249F5741
:1007D00050409AF0F1F088234AF0EE0FFF1FBB1F44
:1007E000661F771F881F91505040A9F79E3F510503
:1007F00080F00C9410040C9498035F3FE4F3983E4F
:10080000D4F3869577956795B795F795E7959F5FAC
:10081000C1F7FE2B880F911D9695879597F908953E
:1008200097F99F6780E870E060E008959FEF80ECA3
:10083000089500240A941616170618060906089546
:1008400000240A9412161306140605060895092EAC
:100850000394000C11F4882352F0BB0F40F4BF2B1B
:1008600011F460FF04C06F5F7F4F8F4F9F4F08955B
:04087000F894FFCF2A
:1008740000E104E108E180E284E288E2230026004A
:02088400290049
:00000001FF
