:100000000C9434000C9451000C9451000C94510049
:100010000C9451000C9451000C9451000C9451001C
:100020000C9451000C9451000C9451000C948900D4
:100030000C9451000C9451000C9451000C945100FC
:100040000C9451000C9451000C9451000C945100EC
:100050000C9451000C9451000C9451000C945100DC
:100060000C9451000C94510011241FBECFEFD8E026
:10007000DEBFCDBF11E0A0E0B1E0E6E5F3E002C0F5
:1000800005900D92A231B107D9F721E0A2E1B1E0CC
:1000900001C01D92A132B207E1F70E945E000C94EC
:1000A000A9010C940000B89AC0980E9495010E9482
:1000B00056010E94B0000E949B0008950E945300C8
:1000C0000E94BB000E94630183EC99E00197F1F765
:1000D00000C0000080911201865F8093120184317C
:1000E00088F30E94BB008091130190911401A091AC
:1000F0001501B09116010196A11DB11D8093130148
:1001000090931401A0931501B0931601109212015F
:10011000D9CF1F920F920FB60F9211248F939F93F6
:1001200085B191E0892785B99F918F910F900FBE7E
:100130000F901F901895E1E8F0E08081886080833F
:100140008BE093E0909389008093880080818360A6
:100150008083EFE6F0E08081826080837894089568
:1001600010921B01109217011092180110921901A0
:1001700010921A010895809113019091140106972D
:10018000FCF48091170190911801A0911901B09190
:100190001A010897A105B10578F080911701909197
:1001A0001801A0911901B0911A010D97A105B1058F
:1001B00018F410921B01089581E080931B010895AB
:1001C00010921701109218011092190110921A0141
:1001D00081E090E090931401809313010895809141
:1001E0001B0108958091170190911801A0911901A8
:1001F000B0911A010196A11DB11D80931701909332
:100200001801A0931901B0931A010895803628F5BA
:10021000E82FE295E695E770F0E0EE0FFF1FEA5F4A
:10022000FE4F0190F081E02D408151816281738108
:10023000982F9F7121E030E002C0220F331F9A9562
:10024000E2F7C901330FAA0BBB0B842B952BA62B0E
:10025000B72B80839183A283B3830895803628F5DA
:10026000E82FE295E695E770F0E0EE0FFF1FE05013
:10027000FF4F0190F081E02D4081518162817381B7
:10028000982F9F7121E030E002C0220F331F9A9512
:10029000E2F7C901330FAA0BBB0B842B952BA62BBE
:1002A000B72B80839183A283B38308950E94950125
:1002B00010921C0110921D0110921E0110921F013C
:1002C00010922001089580911D0190911E01A0912E
:1002D0001F01B0912001843F9140A105B10581F437
:1002E00060911C01609560931C0181E00E94970160
:1002F00010921D0110921E0110921F0110922001F8
:1003000080911D0190911E01A0911F01B0912001CB
:100310000A96A11DB11D80931D0190931E01A0930B
:100320001F01B09320010C94F200219A089545B169
:1003300021E030E0F90102C0EE0FFF1F8A95E2F7DD
:10034000CF01662319F0842B85B908958095842305
:06035000FBCFF894FFCF83
:1003560080E284E288E200E104E108E1230026006D
:0203660029006C
:00000001FF
