:100000000C9434000C9451000C9451000C94510049
:100010000C9451000C9451000C9451000C9451001C
:100020000C9451000C9451000C9451000C941D013F
:100030000C9451000C9451000C945F000C945100EE
:100040000C9451000C9451000C9451000C945100EC
:100050000C9451000C9451000C9451000C945100DC
:100060000C9451000C94510011241FBECFEFD8E026
:10007000DEBFCDBF11E0A0E0B1E0E4E1F5E002C0F9
:1000800005900D92A231B107D9F721E0A2E1B1E0CC
:1000900001C01D92A133B207E1F70E948F000C94BA
:1000A00088020C94000082E084BD9FE097BD80939D
:1000B0006E0083E085BD8FB780688FBF08951F9263
:1000C0000F920FB60F9211248F939F93AF93BF930C
:1000D0008091170190911801A0911901B0911A0116
:1000E0000196A11DB11D8093170190931801A09353
:1000F0001901B0931A01BF91AF919F918F910F9009
:100100000FBE0F901F90189528980E9473020E94AE
:1001100035020E9445010E94C8000C9453000E94C1
:100120008400289A8091170190911801A0911901DB
:10013000B0911A0140911301509114016091150181
:1001400070911601841B950BA60BB70B0A97A1059E
:10015000B10540F38091170190911801A091190108
:10016000B0911A018093130190931401A09315018B
:10017000B09316010E94460280911201865F80931F
:100180001201843178F2109212010E946401CACFE8
:100190008FB78F778FBFE0E6F0E080818861808342
:1001A0008AE08083E1E8F0E080818860808380815C
:1001B000836080838FE293E090938900809388002E
:1001C000EFE6F0E08081826080838FB780688FBF28
:1001D00008950E94CE01811125C081E090E0209118
:1001E000290130912A01232B11F090E080E0892B26
:1001F000C9F0A89585B192E0892785B980911B0146
:1002000090911C01A0911D01B0911E010196A11DAC
:10021000B11D80931B0190931C01A0931D01B0930D
:100220001E01089588E198E00FB6F894A895809390
:1002300060000FBE9093600008951F920F920FB65A
:100240000F9211242F933F934F935F936F937F935C
:100250008F939F93AF93BF93EF93FF930E94E90017
:1002600085B190E2892785B9FF91EF91BF91AF9158
:100270009F918F917F916F915F914F913F912F91BE
:100280000F900FBE0F901F9018951092270110929B
:100290001F0110922001109221011092220181E091
:1002A00090E0A0E0B0E08093290190932A01A09310
:1002B0002B01B0932C011092230110922401109273
:1002C000250110922601089581E090E0A0E0B0E0C1
:1002D0008093290190932A01A0932B01B0932C01C4
:1002E0008091230190912401A0912501B0912601D4
:1002F0000196A11DB11D8093230190932401A09329
:100300002501B093260185B198E0892785B98091B0
:10031000230190912401A0912501B0912601059718
:10032000A105B10570F185B190E4892785B9809167
:100330001F0190912001A0912101B0912201089705
:10034000A105B10538F180911F0190912001A09184
:100350002101B09122010D97A105B105D8F41092A9
:10036000270110921F01109220011092210110927A
:100370002201109223011092240110922501109263
:1003800026011092290110922A0110922B0110923D
:100390002C01089581E080932701E3CF809127010C
:1003A000089580911F0190912001A0912101B091A9
:1003B00022010196A11DB11D80931F019093200180
:1003C000A0932101B09322010895803628F5E82FEB
:1003D000E295E695E770F0E0EE0FFF1FEA5FFE4F53
:1003E0000190F081E02D4081518162817381982FCD
:1003F0009F7121E030E002C0220F331F9A95E2F78F
:10040000C901330FAA0BBB0B842B952BA62BB72B43
:1004100080839183A283B3830895803628F5E82FE3
:10042000E295E695E770F0E0EE0FFF1FE050FF4F1A
:100430000190F081E02D4081518162817381982F7C
:100440009F7121E030E002C0220F331F9A95E2F73E
:10045000C901330FAA0BBB0B842B952BA62BB72BF3
:1004600080839183A283B38308950E9473021092C4
:10047000280160E084E00E94760210922D01109223
:100480002E0110922F0110923001089585B194E051
:10049000892785B980912D0190912E01A0912F017E
:1004A000B09130010A96A11DB11D80932D0190934A
:1004B0002E01A0932F01B0933001843F9140A105FC
:1004C000B10580F06091280160956093280184E077
:1004D0000E94760210922D0110922E0110922F018F
:1004E0001092300108958FEF84B9089545B121E04D
:1004F00030E0F90102C0EE0FFF1F8A95E2F7CF014D
:10050000662319F0842B85B9089580958423FBCF49
:04051000F894FFCF8D
:1005140080E284E288E200E104E108E123002600AD
:020524002900AC
:00000001FF
