:100000000C9434000C9451000C9451000C94510049
:100010000C9451000C9451000C9451000C9451001C
:100020000C9451000C9451000C9451000C947200EB
:100030000C9451000C9451000C9451000C945100FC
:100040000C9451000C9451000C9451000C945100EC
:100050000C9451000C9451000C9451000C945100DC
:100060000C9451000C94510011241FBECFEFD8E026
:10007000DEBFCDBF11E0A0E0B1E0ECE1F3E002C0F3
:1000800005900D92A231B107D9F721E0A2E1B1E0CC
:1000900001C01D92AD31B207E1F70E9453000C94EC
:1000A0008C010C9400000E9478010E947D000E9447
:1000B00039010E949D000E9446010E94AB00C1E0F0
:1000C000D0E083EC99E00197F1F700C000000E94B6
:1000D0004601C230D10519F40E94AB00F2CFC2E054
:1000E000D0E0EFCF1F920F920FB60F921124289AF3
:1000F0000F900FBE0F901F901895F894E1E8F0E074
:1001000080818860808383ED90E390938900809361
:100110008800808183608083EFE6F0E080818260E8
:100120008083209A2898E0E6F0E088E180838FE0E1
:100130008083789408950C94D20081E08093170115
:1001400010921301109214011092150110921601D1
:10015000109212010895809112018F5F8093120115
:100160008730D8F48091130190911401A09115016A
:10017000B09116010897A109B1090597A105B1052C
:1001800068F410921701109213011092140110924A
:1001900015011092160110921201089581E08093CA
:1001A0001701F1CF8091170108958091130190916B
:1001B0001401A0911501B09116010196A11DB11D68
:1001C0008093130190931401A0931501B09316012D
:1001D0000895803628F5E82FE295E695E770F0E07F
:1001E000EE0FFF1FEA5FFE4F0190F081E02D40818E
:1001F000518162817381982F9F7121E030E002C0AC
:10020000220F331F9A95E2F7C901330FAA0BBB0BDC
:10021000842B952BA62BB72B80839183A283B3834A
:100220000895803628F5E82FE295E695E770F0E02E
:10023000EE0FFF1FE050FF4F0190F081E02D408155
:10024000518162817381982F9F7121E030E002C05B
:10025000220F331F9A95E2F7C901330FAA0BBB0B8C
:10026000842B952BA62BB72B80839183A283B383FA
:1002700008950E94780110921801109219011092AD
:100280001A0110921B0110921C010895809119010E
:1002900090911A01A0911B01B0911C01843F9140E3
:1002A000A105B10581F46091180160956093180172
:1002B00081E00E947A011092190110921A011092A5
:1002C0001B0110921C018091190190911A01A091BB
:1002D0001B01B0911C010A96A11DB11D809319014B
:1002E00090931A01A0931B01B0931C010C94D500AC
:1002F000219A089545B121E030E0F90102C0EE0FE6
:10030000FF1F8A95E2F7CF01662319F0842B85B988
:0C031000089580958423FBCFF894FFCF64
:10031C0080E284E288E200E104E108E123002600A7
:02032C002900A6
:00000001FF
