:100000000C9434000C9451000C9451000C94510049
:100010000C9451000C9451000C9451000C9451001C
:100020000C9451000C9451000C9451000C94EE006F
:100030000C9451000C9451000C9451000C945100FC
:100040000C9451000C9451000C9451000C945100EC
:100050000C9451000C9451000C9451000C945100DC
:100060000C9451000C94510011241FBECFEFD8E026
:10007000DEBFCDBF11E0A0E0B1E0E0E6F4E002C0F9
:1000800005900D92A231B107D9F721E0A2E1B1E0CC
:1000900001C01D92AD32B207E1F70E9460000C94DE
:1000A0002E020C940000209A239A229A28980E94EB
:1000B0001A020E94D8010E9425010E94A100089501
:1000C0000E945300289A0E94E5010E94390183ECA6
:1000D00099E00197F1F700C000000E94E5018091CE
:1000E0001201865F80931201843188F30E943901E6
:1000F0008091170190911801A0911901B0911A01F6
:100100000196A11DB11D8093170190931801A09332
:100110001901B0931A018091130190911401A091DB
:100120001501B09116010196A11DB11D8093130117
:1001300090931401A0931501B0931601109212012F
:10014000C6CFF894E1E8F0E08081886080838BE09E
:1001500093E09093890080938800808183608083FE
:10016000EFE6F0E0808182608083E0E6F0E088E105
:1001700080838AE080838FB780688FBF08958091E5
:100180001B0180FF1BC08091130190911401029705
:1001900074F01092260110922501A89585B191E086
:1001A000892785B91092140110921301089581E0F6
:1001B00090E0909326018093250108950E9471019B
:1001C00081110BC08091250190912601892B29F482
:1001D000A89585B191E0892785B908951F920F925E
:1001E0000FB60F9211242F933F934F935F936F930A
:1001F0007F938F939F93AF93BF93EF93FF938091E0
:100200001B0190911C01A0911D01B0911E0101964E
:10021000A11DB11D80931B0190931C01A0931D0192
:10022000B0931E010E94BF00FF91EF91BF91AF916B
:100230009F918F917F916F915F914F913F912F91FE
:100240000F900FBE0F901F90189581E080932301AF
:1002500010921F0110922001109221011092220190
:100260001092250110922601109227011092280168
:10027000089585B198E0892785B9809117019091FB
:1002800018010697FCF480911F0190912001A09124
:100290002101B09122010897A105B10578F0809164
:1002A0001F0190912001A0912101B09122010D9791
:1002B000A105B10518F410922301089581E08093FF
:1002C0002301089510921F01109220011092210124
:1002D0001092220181E090E0909318018093170121
:1002E000089580912301089580911F01909120012C
:1002F000A0912101B09122010196A11DB11D809311
:100300001F0190932001A0932101B0932201089531
:10031000803628F5E82FE295E695E770F0E0EE0FDD
:10032000FF1FEA5FFE4F0190F081E02D4081518177
:1003300062817381982F9F7121E030E002C0220F0B
:10034000331F9A95E2F7C901330FAA0BBB0B842B1D
:10035000952BA62BB72B80839183A283B38308951B
:10036000803628F5E82FE295E695E770F0E0EE0F8D
:10037000FF1FE050FF4F0190F081E02D408151813F
:1003800062817381982F9F7121E030E002C0220FBB
:10039000331F9A95E2F7C901330FAA0BBB0B842BCD
:1003A000952BA62BB72B80839183A283B3830895CB
:1003B0000E941A02109224011092290110922A011F
:1003C00010922B0110922C01089585B194E0892799
:1003D00085B98091290190912A01A0912B01B091BA
:1003E0002C01843F9140A105B10581F46091240165
:1003F00060956093240181E00E941C021092290103
:1004000010922A0110922B0110922C018091290147
:1004100090912A01A0912B01B0912C010A96A11D67
:10042000B11D8093290190932A01A0932B01B093D1
:100430002C010895219A089545B121E030E0F90199
:1004400002C0EE0FFF1F8A95E2F7CF01662319F075
:10045000842B85B9089580958423FBCFF894FFCF32
:1004600080E284E288E200E104E108E12300260062
:02047000290061
:00000001FF
