:020000040800F2
:100000000000012061020008650200086702000884
:100010007D0200087F020008950200080000000031
:10002000000000000000000000000000AB0200081B
:10003000AD02000800000000AF020008B102000895
:1000400085040008C5020008C5020008C5020008B2
:10005000C5020008C5020008C5020008C502000864
:10006000C5020008C5020008C5020008C502000854
:10007000C5020008C5020008C5020008C502000844
:10008000C5020008C5020008C50200080000000003
:10009000000000000000000000000000C502000891
:1000A000C5020008C5020008C5020008C502000814
:1000B000C5020008C5020008C5020008C502000804
:1000C000C5020008C5020008C5020008C5020008F4
:1000D000C5020008C5020008C502000800000000B3
:1000E000C5020008C5020008C502000800000000A3
:1000F000000000000000000000000000C502000831
:1001000000000000C5020008C5020008C502000882
:1001100000000000000000000000000000000000DF
:10012000C5020008C5020008C5020008C502000893
:10013000C5020008000000000000000000000000F0
:10014000000000000000000000000000C5020008E0
:10015000C5020008C5020008C5020008C502000863
:10016000C5020008C50200080000000000000000F1
:10017000000000000000000000000000000000007F
:1001800000000000C50200080000000000000000A0
:10019000C502000807B500F0E9F8274B274883425D
:1001A00026D3274A274900208A422CD300F0EAF8B8
:1001B000254D264C01A9684600F0D0F8641BA41018
:1001C0000026B44228DC224D224C641BA4100026D9
:1001D000B44226DCDDE9000100F02AF91E4E1F4C76
:1001E000A41B0546A410002C20DC284600F0B2F821
:1001F000D3E900129C680C33891A9442CFD9555820
:1002000015600432F9E752F8083B52F8044C9C425E
:10021000CAD943F8040BFAE755F8043B984701366E
:10022000CFE755F8043B98470136D1E7013C56F833
:1002300024309847D7E700BFC8020008E002000852
:10024000E0020008F0020008F0020008F0020008D6
:10025000F0020008F0020008F0020008F0020008B6
:1002600014480047FEE71EF0040F0CBFEFF30880B0
:10027000EFF309807146104A1047FEE7FEE71EF0D3
:10028000040F0CBFEFF30880EFF3098071460B4AAF
:100290001047FEE71EF0040F0CBFEFF30880EFF3EA
:1002A00009807146064A1047FEE7FEE7FEE7FEE7D3
:1002B00070470000950100087B02000893020008C7
:0602C000A9020008FEE7A0
:1002C80078050008000000201800002078050008C4
:1002D800000000100000001018000020240000207A
:0802E8000000001000000010EE
:1002F000164B30B5DC68C4F30224C4F10703251D96
:10030000042B28BF0423062D4FF0FF3505FA03F315
:100310008CBF033C002421EA0303A34005FA04F444
:1003200022EA0402002843EA0203ACBF00F1604065
:10033000074A4FEA0313B8BF00F00F00DBB2AABFB1
:1003400000F56140135480F8003330BD00ED00E04B
:1003500014ED00E008B500F017F800000123036079
:10036000014B0B60704700BF0000002008B500F093
:100370001DF8024B024A9A6008BD00BF00ED00E084
:100380000000000800F01AB8BFF34F8F0549064B74
:10039000CA6802F4E0621343CB60BFF34F8F00BF23
:1003A000FDE700BF00ED00E00400FA05024B4FF04E
:1003B00000629A60704700BF00ED00E0174A1849DC
:1003C000936803F00C03042B0DD0082B0DD0154BB4
:1003D0000B60124B144A9B68C3F30313D25C0B6887
:1003E000D3400B607047114BF2E75368506813F429
:1003F000800F00F03F00536814BF0C4A094AB2FB5B
:10040000F0F0064A5268C2F30142C3F38813013286
:1004100043435200B3FBF2F3DAE700BF0038024077
:10042000080000200024F4006805000800127A008B
:1004300008B500F04DF8012000F054F84B2000F012
:1004400051F800F001F8FEE710B50C4C7F23236053
:10045000636843F41F7343F003036360002000F0FC
:1004600071F8002211461046FFF742FF23686268C8
:1004700043F080032360024B1A6010BD002C004043
:100480001C0000200F4B9A68D20719D5FF221A6072
:100490000D4B01221A600D4BD3F8002422F4405278
:1004A00042F48052C3F80024D3F8042422F040021E
:1004B000C3F80424D3F8142442F04002C3F81424EF
:1004C000704700BF002C00402000002000000240C8
:1004D000034AD2F8003843F00103C2F800387047ED
:1004E0000030024000F01F024009032826D8DFE850
:1004F00000F0020B141D12490123D1F8300893407B
:100500000343C1F8303870470D490123D1F834084E
:1005100093400343C1F83438704709490123D1F8A7
:10052000400893400343C1F8403870470449012311
:10053000D1F8440893400343C1F84438704700BFE2
:10054000003002405F280BD8064B420900F01F0024
:1005500053F822200123116803FA00F008431060C9
:10056000704700BF0C0000200000000000000000E9
:0805700001020304060708095B
:1005780018000020000000000024F40000E100E062
:0805880004E100E008E100E0DD
:040000050800019559
:00000001FF
