:020000040800F2
:100000000000012061020008650200086702000884
:100010007D0200087F020008950200080000000031
:10002000000000000000000000000000AB0200081B
:10003000AD02000800000000AF020008B102000895
:1000400059050008C5020008C5020008C5020008DD
:10005000C5020008C5020008C5020008C502000864
:10006000C5020008C5020008C5020008C502000854
:10007000C5020008C5020008C5020008C502000844
:10008000C5020008C5020008C50200080000000003
:10009000000000000000000000000000C502000891
:1000A000C5020008C5020008C5020008C502000814
:1000B000C5020008C5020008C5020008C502000804
:1000C000C5020008C5020008C5020008C5020008F4
:1000D000C5020008C5020008C502000800000000B3
:1000E000C5020008C5020008C502000800000000A3
:1000F000000000000000000000000000C502000831
:1001000000000000C5020008C5020008C502000882
:1001100000000000000000000000000000000000DF
:10012000C5020008C5020008C5020008C502000893
:10013000C5020008000000000000000000000000F0
:10014000000000000000000000000000C5020008E0
:10015000C5020008C5020008C5020008C502000863
:10016000C5020008C50200080000000000000000F1
:10017000000000000000000000000000000000007F
:1001800000000000C50200080000000000000000A0
:10019000C502000807B500F055F9274B27488342F0
:1001A00026D3274A274900208A422CD300F056F94B
:1001B000254D264C01A9684600F03CF9641BA410AB
:1001C0000026B44228DC224D224C641BA4100026D9
:1001D000B44226DCDDE9000100F096F91E4E1F4C0A
:1001E000A41B0546A410002C20DC284600F01EF9B4
:1001F000D3E900129C680C33891A9442CFD9555820
:1002000015600432F9E752F8083B52F8044C9C425E
:10021000CAD943F8040BFAE755F8043B984701366E
:10022000CFE755F8043B98470136D1E7013C56F833
:1002300024309847D7E700BFC8020008E002000852
:10024000E0020008F0020008F0020008F0020008D6
:10025000F0020008F0020008F0020008F0020008B6
:1002600014480047FEE71EF0040F0CBFEFF30880B0
:10027000EFF309807146104A1047FEE7FEE71EF0D3
:10028000040F0CBFEFF30880EFF3098071460B4AAF
:100290001047FEE71EF0040F0CBFEFF30880EFF3EA
:1002A00009807146064A1047FEE7FEE7FEE7FEE7D3
:1002B00070470000950100087B02000893020008C7
:0602C000A9020008FEE7A0
:1002C800F4060008000000201C000020F4060008C6
:1002D80000000010000000101C0000203400002066
:0802E8000000001000000010EE
:1002F0007047000038B50E4A0E4B054618784FF48B
:100300007A73B3FBF0F31068B0FBF3F000F07AF807
:10031000044658B90F2D09D8024629464FF0FF3040
:1003200000F03EF8044B20461D6038BD0120FCE77C
:1003300010000020000000200400002008B50B4B36
:100340001A6842F400721A601A6842F480621A60F5
:100350001A6842F480721A60032000F00FF80F2030
:10036000FFF7C8FFFFF7C4FF002008BD003C0240B4
:10037000014B1868704700BF1C0000200749CA687D
:1003800022F4E0620302120403F4E063120C13434C
:1003900043F0BF6343F40033CB60704700ED00E0EF
:1003A000164B30B5DC68C4F30224C4F10703251DE5
:1003B000042B28BF0423062D4FF0FF3505FA03F365
:1003C0008CBF033C002421EA0303A34005FA04F494
:1003D00022EA0402002843EA0203ACBF00F16040B5
:1003E000074A4FEA0313B8BF00F00F00DBB2AABF01
:1003F00000F56140135480F8003330BD00ED00E09B
:1004000014ED00E00138B0F1807F0BD24FF0E02313
:10041000054A5861F02182F82310002007229861D4
:100420001A6170470120704700ED00E008B500F048
:1004300017F8000001230360014B0B60704700BFF9
:100440000800002008B500F01DF8024B024A9A602F
:1004500008BD00BF00ED00E00000000800F01AB881
:10046000BFF34F8F0549064BCA6802F4E06213439D
:10047000CB60BFF34F8F00BFFDE700BF00ED00E092
:100480000400FA05024B4FF000629A60704700BF0B
:1004900000ED00E0174A1849936803F00C03042BA1
:1004A0000DD0082B0DD0154B0B60124B144A9B68D6
:1004B000C3F30313D25C0B68D3400B607047114B3E
:1004C000F2E75368506813F4800F00F03F00536860
:1004D00014BF0C4A094AB2FBF0F0064A5268C2F354
:1004E0000142C3F38813013243435200B3FBF2F3DA
:1004F000DAE700BF00380240100000200024F400BA
:10050000E406000800127A0007B500F06BF8FFF768
:1005100015FF012000F070F84B2000F06DF800F09E
:100520009BF8002442F20F7544F61F660194019B6C
:10053000AB4208D900F09AF80094009BB34206D968
:1005400000F022F8F2E7019B01330193EFE7009BF3
:1005500001330093F1E7000010B5FFF709FF0446EF
:1005600000F032F8012809D1054B1868241A632CD1
:100570009FBF044A136843F07F03136010BD00BFA0
:1005800024000020002C004010B5FFF7F1FE0A4ABD
:100590001368C31A642B0BD80849094C0B68106008
:1005A000083B042B94BF00230123237000230B601E
:1005B000044B186010BD00BF2C0000202800002054
:1005C0003000002024000020014B1878704700BF45
:1005D00030000020024A136801331360704700BFE7
:1005E00028000020034AD2F8003843F00103C2F883
:1005F000003870470030024000F01F024009032815
:1006000026D8DFE800F0020B141D12490123D1F8AF
:10061000300893400343C1F8303870470D49012337
:10062000D1F8340893400343C1F83438704709497E
:100630000123D1F8400893400343C1F84038704784
:1006400004490123D1F8440893400343C1F84438D6
:10065000704700BF0030024008B500F023F8024B9D
:1006600000221A7008BD00BF3100002007B500232A
:100670000A4A0193019B93420CD9094B1978C9434B
:10068000C9B20320197000F01DF803B05DF804EB47
:10069000FFF7A0BF019B01330193EBE71FA1070008
:1006A00031000020064B5A68136823F0C00343F062
:1006B00040031360536823F008035360704700BF82
:1006C00014000020064B10B55C68012303FA00F209
:1006D000636901FA00F023EA02030343636110BD7A
:1006E00014000020000000000000000001020304CC
:0406F00006070809E8
:1006F40001FFFFFF100000002000002000000000A8
:0C0704000024F400000002400004024049
:040000050800019559
:00000001FF
